:03000000020003F8
:03005C0002005F40
:05005F0012006480FEA8
:0E0064007592E6797B75AF07759AE7759DE793
:0B007200788DE4F27A808A9B759EC0B6
:08007D00E5BA20E1FBE24202BA
:06008500E32390008B73E1
:0E008B0080108014801C80538024803D8044AF
:040099005100802270
:06009D00E3F8E3F6801C0D
:0A00A300E3F582E3F583E3F0801239
:0800AD00E3FBE3CB9000B6F089
:0400B5008BE0800656
:0300B900E3F8E683
:0300BC00787CF25B
:0A00BF00EAB59BC2743F559E60A98C
:0B00C90085BA202002FA788FF2809E9A
:0900D400E3F582E3F583E080DF2F
:0500DD00E39000E3F0D8
:0400E200E5E080D6FF
:0800E600E3FBE3FCEB60010CFD
:0900EE00E4FEC59BFD7FF078499A
:0200F7008F9ADE
:0500F900E5AA20E0FB78
:0E00FE00E3F5C1A400E3F5C1748200DEF3F265
:0B010C00DBE9DCE78D9B759AE780A81B
:06003200E478FFF6D8FDA2
:080010007900E94400601B7A4D
:050018000090011B78BF
:03001D000075A0CB
:0A00200000E493F2A308B800020503
:08002A00A0D9F4DAF275A0FF81
:080038007800E84400600A7939
:030040000075A0A8
:0600430000E4F309D8FC03
:080049007800E84400600C7926
:0B00510000900000E4F0A3D8FCD9FAF6
:03000300758107FD
:0A000600120117E582600302005F9B
:0401170075820022CB
:00000001FF
